{
  "_format": "hh-sol-artifact-1",
  "contractName": "Counter",
  "sourceName": "contracts/Counter.sol",
  "abi": [
    {
      "anonymous": false,
      "inputs": [
        {
          "indexed": true,
          "internalType": "address",
          "name": "adrr",
          "type": "address"
        },
        {
          "indexed": false,
          "internalType": "uint256",
          "name": "counter",
          "type": "uint256"
        }
      ],
      "name": "CounterInc",
      "type": "event"
    },
    {
      "inputs": [],
      "name": "count",
      "outputs": [
        {
          "internalType": "uint256",
          "name": "",
          "type": "uint256"
        }
      ],
      "stateMutability": "nonpayable",
      "type": "function"
    },
    {
      "inputs": [],
      "name": "views",
      "outputs": [
        {
          "internalType": "uint32",
          "name": "",
          "type": "uint32"
        }
      ],
      "stateMutability": "view",
      "type": "function"
    }
  ],
  "bytecode": "0x608060405234801561001057600080fd5b5061038c806100206000396000f3fe608060405234801561001057600080fd5b50600436106100365760003560e01c806306661abd1461003b578063d65e880d14610059575b600080fd5b610043610077565b60405161005091906101c0565b60405180910390f35b6100616100d9565b60405161006e91906101fa565b60405180910390f35b600080600081548092919061008b90610244565b91905055506100d16040518060400160405280600e81526020017f436f756e746572206973206e6f770000000000000000000000000000000000008152506000546100e2565b600054905090565b60008054905090565b61017a82826040516024016100f8929190610326565b6040516020818303038152906040527f9710a9d0000000000000000000000000000000000000000000000000000000007bffffffffffffffffffffffffffffffffffffffffffffffffffffffff19166020820180517bffffffffffffffffffffffffffffffffffffffffffffffffffffffff838183161783525050505061017e565b5050565b60008151905060006a636f6e736f6c652e6c6f679050602083016000808483855afa5050505050565b6000819050919050565b6101ba816101a7565b82525050565b60006020820190506101d560008301846101b1565b92915050565b600063ffffffff82169050919050565b6101f4816101db565b82525050565b600060208201905061020f60008301846101eb565b92915050565b7f4e487b7100000000000000000000000000000000000000000000000000000000600052601160045260246000fd5b600061024f826101a7565b91507fffffffffffffffffffffffffffffffffffffffffffffffffffffffffffffffff82141561028257610281610215565b5b600182019050919050565b600081519050919050565b600082825260208201905092915050565b60005b838110156102c75780820151818401526020810190506102ac565b838111156102d6576000848401525b50505050565b6000601f19601f8301169050919050565b60006102f88261028d565b6103028185610298565b93506103128185602086016102a9565b61031b816102dc565b840191505092915050565b6000604082019050818103600083015261034081856102ed565b905061034f60208301846101b1565b939250505056fea264697066735822122088b9c87ea554adf0126f7c4dd174fd35ca6d842c7e430d6042a024e8ff1fea4764736f6c634300080a0033",
  "linkReferences": {},
  "deployedLinkReferences": {}
}